{
  "_format": "hh-sol-artifact-1",
  "contractName": "LimiSwap",
  "sourceName": "contracts/limiswap.sol",
  "abi": [
    {
      "inputs": [
        {
          "internalType": "address",
          "name": "keeperRegistery_",
          "type": "address"
        },
        {
          "internalType": "contract ISwapRouter",
          "name": "swapRouter_",
          "type": "address"
        },
        {
          "internalType": "contract IQuoter",
          "name": "quoter_",
          "type": "address"
        },
        {
          "internalType": "contract IERC20",
          "name": "weth_",
          "type": "address"
        }
      ],
      "stateMutability": "nonpayable",
      "type": "constructor"
    },
    {
      "inputs": [],
      "name": "OnlySimulatedBackend",
      "type": "error"
    },
    {
      "anonymous": false,
      "inputs": [
        {
          "indexed": true,
          "internalType": "uint256",
          "name": "orderId",
          "type": "uint256"
        }
      ],
      "name": "OrderCanceled",
      "type": "event"
    },
    {
      "anonymous": false,
      "inputs": [
        {
          "indexed": true,
          "internalType": "uint256",
          "name": "orderId",
          "type": "uint256"
        },
        {
          "indexed": false,
          "internalType": "uint256",
          "name": "targetPrice",
          "type": "uint256"
        },
        {
          "indexed": false,
          "internalType": "uint256",
          "name": "amountIn",
          "type": "uint256"
        },
        {
          "indexed": false,
          "internalType": "address",
          "name": "tokenIn",
          "type": "address"
        },
        {
          "indexed": false,
          "internalType": "address",
          "name": "tokenOut",
          "type": "address"
        },
        {
          "indexed": true,
          "internalType": "address",
          "name": "user",
          "type": "address"
        },
        {
          "indexed": false,
          "internalType": "uint24",
          "name": "poolFee",
          "type": "uint24"
        },
        {
          "indexed": false,
          "internalType": "uint16",
          "name": "slippage",
          "type": "uint16"
        }
      ],
      "name": "OrderCreated",
      "type": "event"
    },
    {
      "anonymous": false,
      "inputs": [
        {
          "indexed": true,
          "internalType": "uint256",
          "name": "orderId",
          "type": "uint256"
        }
      ],
      "name": "OrderFilled",
      "type": "event"
    },
    {
      "anonymous": false,
      "inputs": [
        {
          "indexed": true,
          "internalType": "address",
          "name": "previousOwner",
          "type": "address"
        },
        {
          "indexed": true,
          "internalType": "address",
          "name": "newOwner",
          "type": "address"
        }
      ],
      "name": "OwnershipTransferred",
      "type": "event"
    },
    {
      "inputs": [
        {
          "internalType": "uint256",
          "name": "orderId",
          "type": "uint256"
        }
      ],
      "name": "cancelOrder",
      "outputs": [],
      "stateMutability": "nonpayable",
      "type": "function"
    },
    {
      "inputs": [
        {
          "internalType": "bytes",
          "name": "checkData",
          "type": "bytes"
        }
      ],
      "name": "checkUpkeep",
      "outputs": [
        {
          "internalType": "bool",
          "name": "",
          "type": "bool"
        },
        {
          "internalType": "bytes",
          "name": "",
          "type": "bytes"
        }
      ],
      "stateMutability": "nonpayable",
      "type": "function"
    },
    {
      "inputs": [
        {
          "internalType": "uint256",
          "name": "price",
          "type": "uint256"
        },
        {
          "internalType": "uint256",
          "name": "amountIn",
          "type": "uint256"
        },
        {
          "internalType": "address",
          "name": "tokenIn",
          "type": "address"
        },
        {
          "internalType": "address",
          "name": "tokenOut",
          "type": "address"
        },
        {
          "internalType": "uint24",
          "name": "poolFee",
          "type": "uint24"
        },
        {
          "internalType": "uint16",
          "name": "slippage",
          "type": "uint16"
        }
      ],
      "name": "createOrder",
      "outputs": [],
      "stateMutability": "payable",
      "type": "function"
    },
    {
      "inputs": [
        {
          "internalType": "uint256",
          "name": "orderId",
          "type": "uint256"
        }
      ],
      "name": "getOrder",
      "outputs": [
        {
          "components": [
            {
              "internalType": "uint256",
              "name": "orderId",
              "type": "uint256"
            },
            {
              "internalType": "uint256",
              "name": "targetPrice",
              "type": "uint256"
            },
            {
              "internalType": "uint256",
              "name": "amountIn",
              "type": "uint256"
            },
            {
              "internalType": "address",
              "name": "tokenIn",
              "type": "address"
            },
            {
              "internalType": "address",
              "name": "tokenOut",
              "type": "address"
            },
            {
              "internalType": "address",
              "name": "user",
              "type": "address"
            },
            {
              "internalType": "uint24",
              "name": "poolFee",
              "type": "uint24"
            },
            {
              "internalType": "uint16",
              "name": "slippage",
              "type": "uint16"
            }
          ],
          "internalType": "struct LimiSwap.Order",
          "name": "",
          "type": "tuple"
        }
      ],
      "stateMutability": "view",
      "type": "function"
    },
    {
      "inputs": [],
      "name": "getTime",
      "outputs": [
        {
          "internalType": "uint32",
          "name": "",
          "type": "uint32"
        }
      ],
      "stateMutability": "view",
      "type": "function"
    },
    {
      "inputs": [],
      "name": "owner",
      "outputs": [
        {
          "internalType": "address",
          "name": "",
          "type": "address"
        }
      ],
      "stateMutability": "view",
      "type": "function"
    },
    {
      "inputs": [
        {
          "internalType": "bytes",
          "name": "performData",
          "type": "bytes"
        }
      ],
      "name": "performUpkeep",
      "outputs": [],
      "stateMutability": "nonpayable",
      "type": "function"
    },
    {
      "inputs": [],
      "name": "renounceOwnership",
      "outputs": [],
      "stateMutability": "nonpayable",
      "type": "function"
    },
    {
      "inputs": [
        {
          "internalType": "address",
          "name": "newOwner",
          "type": "address"
        }
      ],
      "name": "transferOwnership",
      "outputs": [],
      "stateMutability": "nonpayable",
      "type": "function"
    },
    {
      "inputs": [
        {
          "internalType": "address",
          "name": "keeperRegistery_",
          "type": "address"
        }
      ],
      "name": "updateKeeper",
      "outputs": [],
      "stateMutability": "nonpayable",
      "type": "function"
    },
    {
      "inputs": [
        {
          "internalType": "contract ISwapRouter",
          "name": "swapRouter_",
          "type": "address"
        }
      ],
      "name": "updateRouter",
      "outputs": [],
      "stateMutability": "nonpayable",
      "type": "function"
    }
  ],
  "bytecode": "0x60806040523480156200001157600080fd5b5060405162001db038038062001db08339810160408190526200003491620002fd565b6200003f33620000a5565b600180546001600160a01b038087166001600160a01b031992831617909255600280548684169083161790556003805485841690831617905560048054928416929091169190911790556200009b6000808080808080620000f5565b50505050620003a8565b600080546001600160a01b038381166001600160a01b0319831681178455604051919092169283917f8be0079c531659141344cd1fd0a4f28419497f9722a3daafe3b4186f6b6457e09190a35050565b604080516101008101825260058054808352602083018b90529282018990526001600160a01b0380891660608401528781166080840152861660a083015262ffffff851660c083015261ffff841660e083015260075491926006916000919082620001608362000365565b909155508152602080820192909252604090810160009081209390935560078054600181018255935283517fa66cc928b5edb82af9bd49922954155ab7b0942694bea4ce44661d9a8736c688600690940293840155908301517fa66cc928b5edb82af9bd49922954155ab7b0942694bea4ce44661d9a8736c6898301558201517fa66cc928b5edb82af9bd49922954155ab7b0942694bea4ce44661d9a8736c68a82015560608201517fa66cc928b5edb82af9bd49922954155ab7b0942694bea4ce44661d9a8736c68b820180546001600160a01b03199081166001600160a01b039384161790915560808401517fa66cc928b5edb82af9bd49922954155ab7b0942694bea4ce44661d9a8736c68c8401805490921690831617905560a08301517fa66cc928b5edb82af9bd49922954155ab7b0942694bea4ce44661d9a8736c68d909201805460c085015160e090950151939092166001600160b81b031990921691909117600160a01b62ffffff909416939093029290921761ffff60b81b1916600160b81b61ffff9092169190910217905550505050505050565b600080600080608085870312156200031457600080fd5b845162000321816200038f565b602086015190945062000334816200038f565b604086015190935062000347816200038f565b60608601519092506200035a816200038f565b939692955090935050565b60006000198214156200038857634e487b7160e01b600052601160045260246000fd5b5060010190565b6001600160a01b0381168114620003a557600080fd5b50565b6119f880620003b86000396000f3fe60806040526004361061009c5760003560e01c80638da5cb5b116100645780638da5cb5b1461014c5780639779021714610174578063b6b1497414610194578063c851cc32146101a7578063d09ef241146101c7578063f2fde38b1461026157600080fd5b80634585e33b146100a1578063514fcac7146100c3578063557ed1ba146100e35780636e04ff0d14610109578063715018a614610137575b600080fd5b3480156100ad57600080fd5b506100c16100bc36600461158a565b610281565b005b3480156100cf57600080fd5b506100c16100de3660046115fc565b610489565b3480156100ef57600080fd5b5060405163ffffffff421681526020015b60405180910390f35b34801561011557600080fd5b5061012961012436600461158a565b610697565b6040516101009291906116d0565b34801561014357600080fd5b506100c1610801565b34801561015857600080fd5b506000546040516001600160a01b039091168152602001610100565b34801561018057600080fd5b506100c161018f366004611544565b610837565b6100c16101a236600461162e565b610883565b3480156101b357600080fd5b506100c16101c2366004611544565b610b75565b3480156101d357600080fd5b506101e76101e23660046115fc565b610bc1565b6040516101009190600061010082019050825182526020830151602083015260408301516040830152606083015160018060a01b0380821660608501528060808601511660808501528060a08601511660a0850152505062ffffff60c08401511660c083015261ffff60e08401511660e083015292915050565b34801561026d57600080fd5b506100c161027c366004611544565b610d10565b6001546001600160a01b031633146102d15760405162461bcd60e51b815260206004820152600e60248201526d496e76616c69642061636365737360901b60448201526064015b60405180910390fd5b60006102df828401846115fc565b9050806103255760405162461bcd60e51b815260206004820152601460248201527313dc99195c88191bd95cc81b9bdd08195e1a5cdd60621b60448201526064016102c8565b60006007828154811061033a5761033a611997565b6000918252602080832060408051610100810182526006949094029091018054845260018101549284019290925260028201549083015260038101546001600160a01b0390811660608401819052600483015482166080850181905260059093015491821660a0850152600160a01b820462ffffff1660c08501819052600160b81b90920461ffff1660e08501529294506103d6929190610dab565b905081602001518110156104215760405162461bcd60e51b815260206004820152601260248201527115185c99d95d081b9bdd081c995858da195960721b60448201526064016102c8565b815161042c90610edb565b6104578260400151836060015184608001518560a001518660c0015187602001518860e0015161107a565b81516040517fcdf98e0235c72ad7ae8de32249da25cc98298c8f11710c55a3d58e9e7ac69f9490600090a25050505050565b600081815260066020526040902054806104dc5760405162461bcd60e51b815260206004820152601460248201527313dc99195c88191bd95cc81b9bdd08195e1a5cdd60621b60448201526064016102c8565b6000600782815481106104f1576104f1611997565b600091825260209182902060408051610100810182526006939093029091018054835260018101549383019390935260028301549082015260038201546001600160a01b03908116606083015260048301548116608083015260059092015491821660a08201819052600160a01b830462ffffff1660c0830152600160b81b90920461ffff1660e0820152915033146105bd5760405162461bcd60e51b815260206004820152600e60248201526d496e76616c69642061636365737360901b60448201526064016102c8565b6105c683610edb565b606081015160a0820151604080840151905163a9059cbb60e01b81526001600160a01b0384169263a9059cbb92610613926004016001600160a01b03929092168252602082015260400190565b602060405180830381600087803b15801561062d57600080fd5b505af1158015610641573d6000803e3d6000fd5b505050506040513d601f19601f820116820180604052508101906106659190611568565b5081516040517fc41f4ceb2938876c35e61b705e9d2f18a02c4a26ce5e049a6308a943d46851b390600090a250505050565b600060606106a36112cf565b60075460015b818110156107b5576000600782815481106106c6576106c6611997565b6000918252602080832060408051610100810182526006949094029091018054845260018101549284019290925260028201549083015260038101546001600160a01b0390811660608401819052600483015482166080850181905260059093015491821660a0850152600160a01b820462ffffff1660c08501819052600160b81b90920461ffff1660e0850152929450610762929190610dab565b9050816020015181106107a05760018360405160200161078491815260200190565b60405160208183030381529060405295509550505050506107fa565b505080806107ad90611950565b9150506106a9565b506000858581818080601f0160208091040260200160405190810160405280939291908181526020018383808284376000920191909152509598509196505050505050505b9250929050565b6000546001600160a01b0316331461082b5760405162461bcd60e51b81526004016102c89061172f565b61083560006112ee565b565b6000546001600160a01b031633146108615760405162461bcd60e51b81526004016102c89061172f565b600180546001600160a01b0319166001600160a01b0392909216919091179055565b6127108161ffff1611156108d15760405162461bcd60e51b815260206004820152601560248201527414db1a5c1c1859d9481bdd5d081bd988189bdd5b99605a1b60448201526064016102c8565b6004546001600160a01b038581169116141561092d5784341461092d5760405162461bcd60e51b8152602060048201526014602482015273496e73756666696369656e742062616c616e636560601b60448201526064016102c8565b3361093d8787878785888861133e565b600254604051636eb1769f60e11b81523060048201526001600160a01b039182166024820152869182169063dd62ed3e9060440160206040518083038186803b15801561098957600080fd5b505afa15801561099d573d6000803e3d6000fd5b505050506040513d601f19601f820116820180604052508101906109c19190611615565b610a4e5760025460405163095ea7b360e01b81526001600160a01b03918216600482015260001960248201529082169063095ea7b390604401602060405180830381600087803b158015610a1457600080fd5b505af1158015610a28573d6000803e3d6000fd5b505050506040513d601f19601f82011682018060405250810190610a4c9190611568565b505b6004546001600160a01b03878116911614610aed576040516323b872dd60e01b81526001600160a01b038381166004830152306024830152604482018990528216906323b872dd90606401602060405180830381600087803b158015610ab357600080fd5b505af1158015610ac7573d6000803e3d6000fd5b505050506040513d601f19601f82011682018060405250810190610aeb9190611568565b505b816001600160a01b03166001600554610b069190611939565b604080518b8152602081018b90526001600160a01b038a8116828401528916606082015262ffffff8816608082015261ffff871660a082015290517ff0a303166bddfb7b5e485372123a4e93e46c424122893d2b2ac44533048cee129181900360c00190a35050505050505050565b6000546001600160a01b03163314610b9f5760405162461bcd60e51b81526004016102c89061172f565b600280546001600160a01b0319166001600160a01b0392909216919091179055565b6040805161010081018252600080825260208201819052918101829052606081018290526080810182905260a0810182905260c0810182905260e0810191909152600082815260066020526040902054610c5d5760405162461bcd60e51b815260206004820152601b60248201527f517565727920666f72206e6f6e6578697374656e74206f72646572000000000060448201526064016102c8565b600082815260066020526040902054600780549091908110610c8157610c81611997565b600091825260209182902060408051610100810182526006939093029091018054835260018101549383019390935260028301549082015260038201546001600160a01b03908116606083015260048301548116608083015260059092015491821660a0820152600160a01b820462ffffff1660c0820152600160b81b90910461ffff1660e082015292915050565b6000546001600160a01b03163314610d3a5760405162461bcd60e51b81526004016102c89061172f565b6001600160a01b038116610d9f5760405162461bcd60e51b815260206004820152602660248201527f4f776e61626c653a206e6577206f776e657220697320746865207a65726f206160448201526564647265737360d01b60648201526084016102c8565b610da8816112ee565b50565b6000808490506000816001600160a01b031663313ce5676040518163ffffffff1660e01b815260040160206040518083038186803b158015610dec57600080fd5b505afa158015610e00573d6000803e3d6000fd5b505050506040513d601f19601f82011682018060405250810190610e2491906116ad565b610e2f90600a61184a565b60035460405163f7729d4360e01b81526001600160a01b038981166004830152888116602483015262ffffff88166044830152606482018490526000608483015292935091169063f7729d439060a401602060405180830381600087803b158015610e9957600080fd5b505af1158015610ead573d6000803e3d6000fd5b505050506040513d601f19601f82011682018060405250810190610ed19190611615565b9695505050505050565b60008181526006602052604081205460078054909290610efd90600190611939565b9050808214610ffb57828181548110610f1857610f18611997565b9060005260206000209060060201838381548110610f3857610f38611997565b600091825260209091208254600690920201908155600180830154908201556002808301549082015560038083015490820180546001600160a01b03199081166001600160a01b03938416179091556004808501549084018054831691841691909117905560059384018054949093018054918216949092169384178255825462ffffff600160a01b9182900416026001600160b81b031990911690931792909217808355905461ffff600160b81b91829004160261ffff60b81b199091161790555b8280548061100b5761100b611981565b60008281526020808220600660001990940184810290910183815560018101849055600281018490556003810180546001600160a01b0319908116909155600482018054909116905560050180546001600160c81b031916905590935595865290525050604082209190915550565b60008690506000604051806101000160405280896001600160a01b03168152602001886001600160a01b031681526020018662ffffff168152602001876001600160a01b031681526020014260646110d291906117cd565b81526020018a8152602001836001600160a01b031663313ce5676040518163ffffffff1660e01b815260040160206040518083038186803b15801561111657600080fd5b505afa15801561112a573d6000803e3d6000fd5b505050506040513d601f19601f8201168201806040525081019061114e91906116ad565b61115990600a61184a565b611165906127106118f7565b61117186612710611916565b61ffff1661117f888e6118f7565b61118991906118f7565b61119391906117e5565b815260006020909101526004549091506001600160a01b03898116911614156112405760025460405163414bf38960e01b81526001600160a01b039091169063414bf389908b906111e8908590600401611764565b6020604051808303818588803b15801561120157600080fd5b505af1158015611215573d6000803e3d6000fd5b50505050506040513d601f19601f8201168201806040525081019061123a9190611615565b506112c4565b60025460405163414bf38960e01b81526001600160a01b039091169063414bf38990611270908490600401611764565b602060405180830381600087803b15801561128a57600080fd5b505af115801561129e573d6000803e3d6000fd5b505050506040513d601f19601f820116820180604052508101906112c29190611615565b505b505050505050505050565b32156108355760405163b60ac5db60e01b815260040160405180910390fd5b600080546001600160a01b038381166001600160a01b0319831681178455604051919092169283917f8be0079c531659141344cd1fd0a4f28419497f9722a3daafe3b4186f6b6457e09190a35050565b604080516101008101825260058054808352602083018b90529282018990526001600160a01b0380891660608401528781166080840152861660a083015262ffffff851660c083015261ffff841660e0830152600754919260069160009190826113a783611950565b909155508152602080820192909252604090810160009081209390935560078054600181018255935283517fa66cc928b5edb82af9bd49922954155ab7b0942694bea4ce44661d9a8736c688600690940293840155908301517fa66cc928b5edb82af9bd49922954155ab7b0942694bea4ce44661d9a8736c6898301558201517fa66cc928b5edb82af9bd49922954155ab7b0942694bea4ce44661d9a8736c68a82015560608201517fa66cc928b5edb82af9bd49922954155ab7b0942694bea4ce44661d9a8736c68b820180546001600160a01b03199081166001600160a01b039384161790915560808401517fa66cc928b5edb82af9bd49922954155ab7b0942694bea4ce44661d9a8736c68c8401805490921690831617905560a08301517fa66cc928b5edb82af9bd49922954155ab7b0942694bea4ce44661d9a8736c68d909201805460c085015160e090950151939092166001600160b81b031990921691909117600160a01b62ffffff909416939093029290921761ffff60b81b1916600160b81b61ffff9092169190910217905550505050505050565b60006020828403121561155657600080fd5b8135611561816119ad565b9392505050565b60006020828403121561157a57600080fd5b8151801515811461156157600080fd5b6000806020838503121561159d57600080fd5b823567ffffffffffffffff808211156115b557600080fd5b818501915085601f8301126115c957600080fd5b8135818111156115d857600080fd5b8660208285010111156115ea57600080fd5b60209290920196919550909350505050565b60006020828403121561160e57600080fd5b5035919050565b60006020828403121561162757600080fd5b5051919050565b60008060008060008060c0878903121561164757600080fd5b86359550602087013594506040870135611660816119ad565b93506060870135611670816119ad565b9250608087013562ffffff8116811461168857600080fd5b915060a087013561ffff8116811461169f57600080fd5b809150509295509295509295565b6000602082840312156116bf57600080fd5b815160ff8116811461156157600080fd5b821515815260006020604081840152835180604085015260005b81811015611706578581018301518582016060015282016116ea565b81811115611718576000606083870101525b50601f01601f191692909201606001949350505050565b6020808252818101527f4f776e61626c653a2063616c6c6572206973206e6f7420746865206f776e6572604082015260600190565b81516001600160a01b03908116825260208084015182169083015260408084015162ffffff16908301526060808401518216908301526080808401519083015260a0838101519083015260c0808401519083015260e09283015116918101919091526101000190565b600082198211156117e0576117e061196b565b500190565b60008261180257634e487b7160e01b600052601260045260246000fd5b500490565b600181815b808511156118425781600019048211156118285761182861196b565b8085161561183557918102915b93841c939080029061180c565b509250929050565b600061156160ff841683600082611863575060016118f1565b81611870575060006118f1565b81600181146118865760028114611890576118ac565b60019150506118f1565b60ff8411156118a1576118a161196b565b50506001821b6118f1565b5060208310610133831016604e8410600b84101617156118cf575081810a6118f1565b6118d98383611807565b80600019048211156118ed576118ed61196b565b0290505b92915050565b60008160001904831182151516156119115761191161196b565b500290565b600061ffff838116908316818110156119315761193161196b565b039392505050565b60008282101561194b5761194b61196b565b500390565b60006000198214156119645761196461196b565b5060010190565b634e487b7160e01b600052601160045260246000fd5b634e487b7160e01b600052603160045260246000fd5b634e487b7160e01b600052603260045260246000fd5b6001600160a01b0381168114610da857600080fdfea2646970667358221220b8a3180929d12f97ac97888193845b0399c5291fe6f6f7f99fbf54a171ee717f64736f6c63430008070033",
  "linkReferences": {},
  "deployedLinkReferences": {}
}